{
  "abi": [
    {
      "inputs": [
        {
          "internalType": "contract Comptroller",
          "name": "_pool",
          "type": "address"
        },
        {
          "internalType": "contract ERC20",
          "name": "_fei",
          "type": "address"
        },
        {
          "internalType": "address",
          "name": "_owner",
          "type": "address"
        },
        {
          "internalType": "contract Authority",
          "name": "_authority",
          "type": "address"
        }
      ],
      "stateMutability": "nonpayable",
      "type": "constructor"
    },
    {
      "anonymous": false,
      "inputs": [
        {
          "indexed": true,
          "internalType": "address",
          "name": "user",
          "type": "address"
        },
        {
          "indexed": true,
          "internalType": "contract Authority",
          "name": "newAuthority",
          "type": "address"
        }
      ],
      "name": "AuthorityUpdated",
      "type": "event"
    },
    {
      "anonymous": false,
      "inputs": [
        {
          "indexed": true,
          "internalType": "address",
          "name": "user",
          "type": "address"
        },
        {
          "indexed": false,
          "internalType": "contract TurboBooster",
          "name": "newBooster",
          "type": "address"
        }
      ],
      "name": "BoosterUpdated",
      "type": "event"
    },
    {
      "anonymous": false,
      "inputs": [
        {
          "indexed": true,
          "internalType": "address",
          "name": "user",
          "type": "address"
        },
        {
          "indexed": false,
          "internalType": "contract TurboClerk",
          "name": "newClerk",
          "type": "address"
        }
      ],
      "name": "ClerkUpdated",
      "type": "event"
    },
    {
      "anonymous": false,
      "inputs": [
        {
          "indexed": true,
          "internalType": "address",
          "name": "user",
          "type": "address"
        },
        {
          "indexed": false,
          "internalType": "contract Authority",
          "name": "newDefaultSafeAuthority",
          "type": "address"
        }
      ],
      "name": "DefaultSafeAuthorityUpdated",
      "type": "event"
    },
    {
      "anonymous": false,
      "inputs": [
        {
          "indexed": true,
          "internalType": "address",
          "name": "user",
          "type": "address"
        },
        {
          "indexed": true,
          "internalType": "address",
          "name": "newOwner",
          "type": "address"
        }
      ],
      "name": "OwnerUpdated",
      "type": "event"
    },
    {
      "anonymous": false,
      "inputs": [
        {
          "indexed": true,
          "internalType": "address",
          "name": "user",
          "type": "address"
        },
        {
          "indexed": true,
          "internalType": "address",
          "name": "to",
          "type": "address"
        },
        {
          "indexed": true,
          "internalType": "contract ERC20",
          "name": "token",
          "type": "address"
        },
        {
          "indexed": false,
          "internalType": "uint256",
          "name": "amount",
          "type": "uint256"
        }
      ],
      "name": "TokenSweeped",
      "type": "event"
    },
    {
      "anonymous": false,
      "inputs": [
        {
          "indexed": true,
          "internalType": "address",
          "name": "user",
          "type": "address"
        },
        {
          "indexed": true,
          "internalType": "contract ERC20",
          "name": "asset",
          "type": "address"
        },
        {
          "indexed": false,
          "internalType": "contract TurboSafe",
          "name": "safe",
          "type": "address"
        },
        {
          "indexed": false,
          "internalType": "uint256",
          "name": "id",
          "type": "uint256"
        }
      ],
      "name": "TurboSafeCreated",
      "type": "event"
    },
    {
      "inputs": [],
      "name": "REVERSE_REGISTRAR",
      "outputs": [
        {
          "internalType": "contract IReverseRegistrar",
          "name": "",
          "type": "address"
        }
      ],
      "stateMutability": "view",
      "type": "function"
    },
    {
      "inputs": [],
      "name": "authority",
      "outputs": [
        {
          "internalType": "contract Authority",
          "name": "",
          "type": "address"
        }
      ],
      "stateMutability": "view",
      "type": "function"
    },
    {
      "inputs": [],
      "name": "booster",
      "outputs": [
        {
          "internalType": "contract TurboBooster",
          "name": "",
          "type": "address"
        }
      ],
      "stateMutability": "view",
      "type": "function"
    },
    {
      "inputs": [],
      "name": "clerk",
      "outputs": [
        {
          "internalType": "contract TurboClerk",
          "name": "",
          "type": "address"
        }
      ],
      "stateMutability": "view",
      "type": "function"
    },
    {
      "inputs": [
        {
          "internalType": "contract ERC20",
          "name": "asset",
          "type": "address"
        }
      ],
      "name": "createSafe",
      "outputs": [
        {
          "internalType": "contract TurboSafe",
          "name": "safe",
          "type": "address"
        },
        {
          "internalType": "uint256",
          "name": "id",
          "type": "uint256"
        }
      ],
      "stateMutability": "nonpayable",
      "type": "function"
    },
    {
      "inputs": [],
      "name": "defaultSafeAuthority",
      "outputs": [
        {
          "internalType": "contract Authority",
          "name": "",
          "type": "address"
        }
      ],
      "stateMutability": "view",
      "type": "function"
    },
    {
      "inputs": [],
      "name": "fei",
      "outputs": [
        {
          "internalType": "contract ERC20",
          "name": "",
          "type": "address"
        }
      ],
      "stateMutability": "view",
      "type": "function"
    },
    {
      "inputs": [],
      "name": "getAllSafes",
      "outputs": [
        {
          "internalType": "contract TurboSafe[]",
          "name": "",
          "type": "address[]"
        }
      ],
      "stateMutability": "view",
      "type": "function"
    },
    {
      "inputs": [
        {
          "internalType": "contract TurboSafe",
          "name": "",
          "type": "address"
        }
      ],
      "name": "getSafeId",
      "outputs": [
        {
          "internalType": "uint256",
          "name": "",
          "type": "uint256"
        }
      ],
      "stateMutability": "view",
      "type": "function"
    },
    {
      "inputs": [
        {
          "internalType": "contract ERC20",
          "name": "",
          "type": "address"
        }
      ],
      "name": "getTotalBoostedAgainstCollateral",
      "outputs": [
        {
          "internalType": "uint256",
          "name": "",
          "type": "uint256"
        }
      ],
      "stateMutability": "view",
      "type": "function"
    },
    {
      "inputs": [
        {
          "internalType": "contract ERC4626",
          "name": "",
          "type": "address"
        }
      ],
      "name": "getTotalBoostedForVault",
      "outputs": [
        {
          "internalType": "uint256",
          "name": "",
          "type": "uint256"
        }
      ],
      "stateMutability": "view",
      "type": "function"
    },
    {
      "inputs": [
        {
          "internalType": "contract ERC20",
          "name": "asset",
          "type": "address"
        },
        {
          "internalType": "contract ERC4626",
          "name": "vault",
          "type": "address"
        },
        {
          "internalType": "uint256",
          "name": "feiAmount",
          "type": "uint256"
        }
      ],
      "name": "onSafeBoost",
      "outputs": [],
      "stateMutability": "nonpayable",
      "type": "function"
    },
    {
      "inputs": [
        {
          "internalType": "contract ERC20",
          "name": "asset",
          "type": "address"
        },
        {
          "internalType": "contract ERC4626",
          "name": "vault",
          "type": "address"
        },
        {
          "internalType": "uint256",
          "name": "feiAmount",
          "type": "uint256"
        }
      ],
      "name": "onSafeLess",
      "outputs": [],
      "stateMutability": "nonpayable",
      "type": "function"
    },
    {
      "inputs": [],
      "name": "owner",
      "outputs": [
        {
          "internalType": "address",
          "name": "",
          "type": "address"
        }
      ],
      "stateMutability": "view",
      "type": "function"
    },
    {
      "inputs": [],
      "name": "pool",
      "outputs": [
        {
          "internalType": "contract Comptroller",
          "name": "",
          "type": "address"
        }
      ],
      "stateMutability": "view",
      "type": "function"
    },
    {
      "inputs": [
        {
          "internalType": "uint256",
          "name": "",
          "type": "uint256"
        }
      ],
      "name": "safes",
      "outputs": [
        {
          "internalType": "contract TurboSafe",
          "name": "",
          "type": "address"
        }
      ],
      "stateMutability": "view",
      "type": "function"
    },
    {
      "inputs": [
        {
          "internalType": "contract Authority",
          "name": "newAuthority",
          "type": "address"
        }
      ],
      "name": "setAuthority",
      "outputs": [],
      "stateMutability": "nonpayable",
      "type": "function"
    },
    {
      "inputs": [
        {
          "internalType": "contract TurboBooster",
          "name": "newBooster",
          "type": "address"
        }
      ],
      "name": "setBooster",
      "outputs": [],
      "stateMutability": "nonpayable",
      "type": "function"
    },
    {
      "inputs": [
        {
          "internalType": "contract TurboClerk",
          "name": "newClerk",
          "type": "address"
        }
      ],
      "name": "setClerk",
      "outputs": [],
      "stateMutability": "nonpayable",
      "type": "function"
    },
    {
      "inputs": [
        {
          "internalType": "contract Authority",
          "name": "newDefaultSafeAuthority",
          "type": "address"
        }
      ],
      "name": "setDefaultSafeAuthority",
      "outputs": [],
      "stateMutability": "nonpayable",
      "type": "function"
    },
    {
      "inputs": [
        {
          "internalType": "string",
          "name": "name",
          "type": "string"
        }
      ],
      "name": "setENSName",
      "outputs": [],
      "stateMutability": "nonpayable",
      "type": "function"
    },
    {
      "inputs": [
        {
          "internalType": "address",
          "name": "newOwner",
          "type": "address"
        }
      ],
      "name": "setOwner",
      "outputs": [],
      "stateMutability": "nonpayable",
      "type": "function"
    },
    {
      "inputs": [
        {
          "internalType": "address",
          "name": "to",
          "type": "address"
        },
        {
          "internalType": "contract ERC20",
          "name": "token",
          "type": "address"
        },
        {
          "internalType": "uint256",
          "name": "amount",
          "type": "uint256"
        }
      ],
      "name": "sweep",
      "outputs": [],
      "stateMutability": "nonpayable",
      "type": "function"
    },
    {
      "inputs": [],
      "name": "totalBoosted",
      "outputs": [
        {
          "internalType": "uint256",
          "name": "",
          "type": "uint256"
        }
      ],
      "stateMutability": "view",
      "type": "function"
    }
  ],
  "bytecode": {
    "object": "0x60c06040523480156200001157600080fd5b50604051620053b7380380620053b783398101604081905262000034916200013a565b600080546001600160a01b03199081166001600160a01b0385811691821784556001805490931690851617909155604051849284929133917f8292fce18fa69edf4db7b94ea2e58241df0ae57f97e0a6c9b29067028bf92d7691a36040516001600160a01b0382169033907fa3396fd7f6e0a21b50e5089d2da70d5ac0a3bbbd1f617a93f134b7638998019890600090a35050506001600160a01b03928316608052501660a052600980546001810182556000919091527f6e1540171b6c0c960b71a7020d9f60077f6af931a8bbf590da0223dacf75c7af0180546001600160a01b0319169055620001a2565b6001600160a01b03811681146200013757600080fd5b50565b600080600080608085870312156200015157600080fd5b84516200015e8162000121565b6020860151909450620001718162000121565b6040860151909350620001848162000121565b6060860151909250620001978162000121565b939692955090935050565b60805160a0516151e8620001cf600039600061035e0152600081816101b00152610c1e01526151e86000f3fe60806040523480156200001157600080fd5b5060043610620001755760003560e01c80638b72c5d911620000d3578063b87ee7af1162000086578063b87ee7af1462000397578063bf7e214f14620003ab578063c19e5e1e14620003bf578063c6def07614620003d6578063d19f55a614620003ea578063eda4e6cd146200040d57600080fd5b80638b72c5d914620002ec5780638cbf46ae146200030f5780638da5cb5b1462000328578063952899fc146200033c5780639a9ba4da1462000358578063a62d3da7146200038057600080fd5b806362c06767116200012c57806362c067671462000234578063631516c2146200024b57806377dd4ac314620002645780637a9e5e4b146200027b5780637c2f1a28146200029257806389adbf6614620002b557600080fd5b80630bb704cf146200017a57806313af4035146200019357806316f0115b14620001aa5780633a58598814620001ef578063434efcbd14620002065780635a826df3146200021d575b600080fd5b620001916200018b36600462000fd7565b62000421565b005b62000191620001a43660046200101d565b620004f1565b620001d27f000000000000000000000000000000000000000000000000000000000000000081565b6040516001600160a01b0390911681526020015b60405180910390f35b620001916200020036600462000fd7565b62000573565b620001d26200021736600462001044565b62000731565b620001916200022e3660046200101d565b6200075c565b620001916200024536600462000fd7565b620007ea565b6200025560055481565b604051908152602001620001e6565b620001916200027536600462001074565b62000894565b620001916200028c3660046200101d565b6200094e565b62000255620002a33660046200101d565b60076020526000908152604090205481565b620002cc620002c63660046200101d565b62000a3f565b604080516001600160a01b039093168352602083019190915201620001e6565b62000255620002fd3660046200101d565b60086020526000908152604090205481565b6200031962000d0b565b604051620001e691906200112f565b600054620001d2906001600160a01b031681565b620001d273084b1c3c81545d370f3634392de611caabff814881565b620001d27f000000000000000000000000000000000000000000000000000000000000000081565b62000191620003913660046200101d565b62000d6f565b600354620001d2906001600160a01b031681565b600154620001d2906001600160a01b031681565b62000191620003d03660046200101d565b62000df7565b600254620001d2906001600160a01b031681565b62000255620003fb3660046200101d565b60066020526000908152604090205481565b600454620001d2906001600160a01b031681565b33600081815260066020526040902054620004725760405162461bcd60e51b815260206004820152600c60248201526b494e56414c49445f5341464560a01b60448201526064015b60405180910390fd5b6001600160a01b038316600090815260076020526040812080548492906200049c90849062001194565b925050819055508160056000828254620004b7919062001194565b90915550506001600160a01b03841660009081526008602052604081208054849290620004e690849062001194565b909155505050505050565b62000509336000356001600160e01b03191662000e7f565b620005285760405162461bcd60e51b81526004016200046990620011ae565b600080546001600160a01b0319166001600160a01b0383169081178255604051909133917f8292fce18fa69edf4db7b94ea2e58241df0ae57f97e0a6c9b29067028bf92d769190a350565b33600081815260066020526040902054620005c05760405162461bcd60e51b815260206004820152600c60248201526b494e56414c49445f5341464560a01b604482015260640162000469565b8160056000828254620005d49190620011d4565b90915550506001600160a01b038316600090815260076020526040812054819062000601908590620011d4565b6001600160a01b038087166000908152600760209081526040808320859055928a1682526008905220549092506200063b908590620011d4565b6001600160a01b03878116600081815260086020526040908190208490556002549051639d4c2af760e01b8152878416600482015260248101929092528883166044830152606482018890526084820186905260a48201849052929350911690639d4c2af79060c401602060405180830381865afa158015620006c2573d6000803e3d6000fd5b505050506040513d601f19601f82011682018060405250810190620006e89190620011ef565b620007295760405162461bcd60e51b815260206004820152601060248201526f1093d3d4d5115497d491529150d5115160821b604482015260640162000469565b505050505050565b600981815481106200074257600080fd5b6000918252602090912001546001600160a01b0316905081565b62000774336000356001600160e01b03191662000e7f565b620007935760405162461bcd60e51b81526004016200046990620011ae565b600280546001600160a01b0319166001600160a01b03831690811790915560405190815233907f382ae7807b72e354764667e9e1dd5cd575c3fe7cee12add48bcfaa99e891e2c9906020015b60405180910390a250565b62000802336000356001600160e01b03191662000e7f565b620008215760405162461bcd60e51b81526004016200046990620011ae565b816001600160a01b0316836001600160a01b0316336001600160a01b03167fa0fae858a9c4a671705052e5103905b60b9c710986ae33bbd7c4108a96e8bdec846040516200087191815260200190565b60405180910390a46200088f6001600160a01b038316848362000f30565b505050565b620008ac336000356001600160e01b03191662000e7f565b620008cb5760405162461bcd60e51b81526004016200046990620011ae565b60405163c47f002760e01b815273084b1c3c81545d370f3634392de611caabff81489063c47f0027906200090490849060040162001213565b6020604051808303816000875af115801562000924573d6000803e3d6000fd5b505050506040513d601f19601f820116820180604052508101906200094a91906200126b565b5050565b6000546001600160a01b0316331480620009e9575060015460405163b700961360e01b81526001600160a01b039091169063b700961390620009a590339030906001600160e01b0319600035169060040162001285565b602060405180830381865afa158015620009c3573d6000803e3d6000fd5b505050506040513d601f19601f82011682018060405250810190620009e99190620011ef565b620009f357600080fd5b600180546001600160a01b0319166001600160a01b03831690811790915560405133907fa3396fd7f6e0a21b50e5089d2da70d5ac0a3bbbd1f617a93f134b7638998019890600090a350565b60008062000a5a336000356001600160e01b03191662000e7f565b62000a795760405162461bcd60e51b81526004016200046990620011ae565b60045460405133916001600160a01b031690859062000a989062000fb0565b6001600160a01b03938416815291831660208301529091166040820152606001604051809103906000f08015801562000ad5573d6000803e3d6000fd5b50600980546001810182557f6e1540171b6c0c960b71a7020d9f60077f6af931a8bbf590da0223dacf75c7af0180546001600160a01b0319166001600160a01b0384811691821790925591546000838152600660209081526040918290206000199093019283905581519485528401829052939550935085169133917f49ca6ed85336e565e010a8e6724df54d52e49015a3e0e726d8a315098dbb1b59910160405180910390a360408051600180825281830190925260009160208083019080368337019050509050828160008151811062000bb55762000bb5620012b2565b6001600160a01b03929092166020928302919091019091015260408051600180825281830190925260009181602001602082028036833701905050905060018160008151811062000c0a5762000c0a620012b2565b6020026020010190151590811515815250507f00000000000000000000000000000000000000000000000000000000000000006001600160a01b031663f851a4406040518163ffffffff1660e01b8152600401602060405180830381865afa15801562000c7b573d6000803e3d6000fd5b505050506040513d601f19601f8201168201806040525081019062000ca19190620012c8565b6001600160a01b031663c8c9c97583836040518363ffffffff1660e01b815260040162000cd0929190620012e8565b600060405180830381600087803b15801562000ceb57600080fd5b505af115801562000d00573d6000803e3d6000fd5b505050505050915091565b6060600980548060200260200160405190810160405280929190818152602001828054801562000d6557602002820191906000526020600020905b81546001600160a01b0316815260019091019060200180831162000d46575b5050505050905090565b62000d87336000356001600160e01b03191662000e7f565b62000da65760405162461bcd60e51b81526004016200046990620011ae565b600480546001600160a01b0319166001600160a01b03831690811790915560405190815233907f4ebbe8f76474854ba65b18eb0cdbd5217493b303404e49cec35a83722f21384790602001620007df565b62000e0f336000356001600160e01b03191662000e7f565b62000e2e5760405162461bcd60e51b81526004016200046990620011ae565b600380546001600160a01b0319166001600160a01b03831690811790915560405190815233907fadb88fd358add1939604589383a855ef0a42b3a8a22c5a3aa5be3c1ef6b7ec2090602001620007df565b6001546000906001600160a01b0316801580159062000f0f575060405163b700961360e01b81526001600160a01b0382169063b70096139062000ecb9087903090889060040162001285565b602060405180830381865afa15801562000ee9573d6000803e3d6000fd5b505050506040513d601f19601f8201168201806040525081019062000f0f9190620011ef565b8062000f2857506000546001600160a01b038581169116145b949350505050565b600060405163a9059cbb60e01b8152836004820152826024820152602060006044836000895af13d15601f3d116001600051141617169150508062000faa5760405162461bcd60e51b815260206004820152600f60248201526e1514905394d1915497d19052531151608a1b604482015260640162000469565b50505050565b613e40806200137383390190565b6001600160a01b038116811462000fd457600080fd5b50565b60008060006060848603121562000fed57600080fd5b833562000ffa8162000fbe565b925060208401356200100c8162000fbe565b929592945050506040919091013590565b6000602082840312156200103057600080fd5b81356200103d8162000fbe565b9392505050565b6000602082840312156200105757600080fd5b5035919050565b634e487b7160e01b600052604160045260246000fd5b6000602082840312156200108757600080fd5b813567ffffffffffffffff80821115620010a057600080fd5b818401915084601f830112620010b557600080fd5b813581811115620010ca57620010ca6200105e565b604051601f8201601f19908116603f01168101908382118183101715620010f557620010f56200105e565b816040528281528760208487010111156200110f57600080fd5b826020860160208301376000928101602001929092525095945050505050565b6020808252825182820181905260009190848201906040850190845b81811015620011725783516001600160a01b0316835292840192918401916001016200114b565b50909695505050505050565b634e487b7160e01b600052601160045260246000fd5b600082821015620011a957620011a96200117e565b500390565b6020808252600c908201526b15539055551213d49256915160a21b604082015260600190565b60008219821115620011ea57620011ea6200117e565b500190565b6000602082840312156200120257600080fd5b815180151581146200103d57600080fd5b600060208083528351808285015260005b81811015620012425785810183015185820160400152820162001224565b8181111562001255576000604083870101525b50601f01601f1916929092016040019392505050565b6000602082840312156200127e57600080fd5b5051919050565b6001600160a01b0393841681529190921660208201526001600160e01b0319909116604082015260600190565b634e487b7160e01b600052603260045260246000fd5b600060208284031215620012db57600080fd5b81516200103d8162000fbe565b604080825283519082018190526000906020906060840190828701845b828110156200132c5781516001600160a01b03168452928401929084019060010162001305565b5050508381038285015284518082528583019183019060005b818110156200136557835115158352928401929184019160010162001345565b509097965050505050505056fe6101a060405260016008553480156200001757600080fd5b5060405162003e4038038062003e408339810160408190526200003a9162000880565b80816001600160a01b03166306fdde036040518163ffffffff1660e01b8152600401600060405180830381865afa1580156200007a573d6000803e3d6000fd5b505050506040513d6000823e601f3d908101601f19168201604052620000a491908101906200094c565b604051602001620000b69190620009ea565b604051602081830303815290604052826001600160a01b03166395d89b416040518163ffffffff1660e01b8152600401600060405180830381865afa15801562000104573d6000803e3d6000fd5b505050506040513d6000823e601f3d908101601f191682016040526200012e91908101906200094c565b60405160200162000140919062000a1b565b6040516020818303038152906040528181846001600160a01b031663313ce5676040518163ffffffff1660e01b8152600401602060405180830381865afa15801562000190573d6000803e3d6000fd5b505050506040513d601f19601f82011682018060405250810190620001b6919062000a47565b600080546001600160a01b03199081166001600160a01b038c8116918217845560018054909316908c16179091556040518b928b929133917f8292fce18fa69edf4db7b94ea2e58241df0ae57f97e0a6c9b29067028bf92d7691a36040516001600160a01b0382169033907fa3396fd7f6e0a21b50e5089d2da70d5ac0a3bbbd1f617a93f134b7638998019890600090a3505082516200025e906002906020860190620007c1565b50815162000274906003906020850190620007c1565b5060ff81166080524660a0526200028a620006a6565b60c0525050506001600160a01b0390921660e05250503361010081905260408051634d4dd26d60e11b81529051639a9ba4da916004808201926020929091908290030181865afa158015620002e3573d6000803e3d6000fd5b505050506040513d601f19601f8201168201806040525081019062000309919062000a73565b6001600160a01b0390811661012081905260e0519091161415620003645760405162461bcd60e51b815260206004820152600d60248201526c1253959053125117d054d4d155609a1b60448201526064015b60405180910390fd5b610100516001600160a01b03166316f0115b6040518163ffffffff1660e01b8152600401602060405180830381865afa158015620003a6573d6000803e3d6000fd5b505050506040513d601f19601f82011682018060405250810190620003cc919062000a73565b6001600160a01b03908116610140819052610120516040516318ffa3fd60e11b815292166004830152906331ff47fa90602401602060405180830381865afa1580156200041d573d6000803e3d6000fd5b505050506040513d601f19601f8201168201806040525081019062000443919062000a73565b6001600160a01b03908116610160526101405160e0516040516318ffa3fd60e11b815290831660048201529116906331ff47fa90602401602060405180830381865afa15801562000498573d6000803e3d6000fd5b505050506040513d601f19601f82011682018060405250810190620004be919062000a73565b6001600160a01b03166101808190526200050f5760405162461bcd60e51b8152602060048201526011602482015270155394d5541413d495115117d054d4d155607a1b60448201526064016200035b565b6040805160018082528183019092526000916020808301908036833701905050905061018051816000815181106200054b576200054b62000a93565b6001600160a01b03928316602091820292909201015261014051604051631853304760e31b815291169063c2998238906200058b90849060040162000aa9565b6000604051808303816000875af1158015620005ab573d6000803e3d6000fd5b505050506040513d6000823e601f3d908101601f19168201604052620005d5919081019062000af8565b600081518110620005ea57620005ea62000a93565b6020026020010151600014620006435760405162461bcd60e51b815260206004820152601460248201527f454e5445525f4d41524b4554535f4641494c454400000000000000000000000060448201526064016200035b565b6200066f6101805160001960e0516001600160a01b03166200074260201b620025f4179092919060201c565b6200069c61016051600019610120516001600160a01b03166200074260201b620025f4179092919060201c565b5050505062000c89565b60007f8b73c3c69bb8fe3d512ecc4cf759cc79239f7b179b0ffacaa9a75d522b39400f6002604051620006da919062000be5565b6040805191829003822060208301939093528101919091527fc89efdaa54c0f20c7adf612882df0950f5a951637e0307cdcb4c672f298b8bc660608201524660808201523060a082015260c00160405160208183030381529060405280519060200120905090565b600060405163095ea7b360e01b8152836004820152826024820152602060006044836000895af13d15601f3d1160016000511416171691505080620007bb5760405162461bcd60e51b815260206004820152600e60248201526d1054141493d59157d1905253115160921b60448201526064016200035b565b50505050565b828054620007cf9062000ba8565b90600052602060002090601f016020900481019282620007f357600085556200083e565b82601f106200080e57805160ff19168380011785556200083e565b828001600101855582156200083e579182015b828111156200083e57825182559160200191906001019062000821565b506200084c92915062000850565b5090565b5b808211156200084c576000815560010162000851565b6001600160a01b03811681146200087d57600080fd5b50565b6000806000606084860312156200089657600080fd5b8351620008a38162000867565b6020850151909350620008b68162000867565b6040850151909250620008c98162000867565b809150509250925092565b634e487b7160e01b600052604160045260246000fd5b604051601f8201601f191681016001600160401b0381118282101715620009155762000915620008d4565b604052919050565b60005b838110156200093a57818101518382015260200162000920565b83811115620007bb5750506000910152565b6000602082840312156200095f57600080fd5b81516001600160401b03808211156200097757600080fd5b818401915084601f8301126200098c57600080fd5b815181811115620009a157620009a1620008d4565b620009b6601f8201601f1916602001620008ea565b9150808252856020828501011115620009ce57600080fd5b620009e18160208401602086016200091d565b50949350505050565b60008251620009fe8184602087016200091d565b6a20547572626f205361666560a81b920191825250600b01919050565b61747360f01b81526000825162000a3a8160028501602087016200091d565b9190910160020192915050565b60006020828403121562000a5a57600080fd5b815160ff8116811462000a6c57600080fd5b9392505050565b60006020828403121562000a8657600080fd5b815162000a6c8162000867565b634e487b7160e01b600052603260045260246000fd5b6020808252825182820181905260009190848201906040850190845b8181101562000aec5783516001600160a01b03168352928401929184019160010162000ac5565b50909695505050505050565b6000602080838503121562000b0c57600080fd5b82516001600160401b038082111562000b2457600080fd5b818501915085601f83011262000b3957600080fd5b81518181111562000b4e5762000b4e620008d4565b8060051b915062000b61848301620008ea565b818152918301840191848101908884111562000b7c57600080fd5b938501935b8385101562000b9c5784518252938501939085019062000b81565b98975050505050505050565b600181811c9082168062000bbd57607f821691505b6020821081141562000bdf57634e487b7160e01b600052602260045260246000fd5b50919050565b600080835481600182811c91508083168062000c0257607f831692505b602080841082141562000c2357634e487b7160e01b86526022600452602486fd5b81801562000c3a576001811462000c4c5762000c7b565b60ff1986168952848901965062000c7b565b60008a81526020902060005b8681101562000c735781548b82015290850190830162000c58565b505084890196505b509498975050505050505050565b60805160a05160c05160e051610100516101205161014051610160516101805161308262000dbe6000396000818161064d015281816106b00152818161074501528181610cc001528181611d3c015281816129de0152612b0601526000818161053a01528181611124015281816112700152611b900152600061030c0152600081816105130152818161189e015281816119820152611c4f01526000818161067401528181610a9f01528181610bb901528181610e43015281816111ea01528181611360015281816116650152818161186f0152611a9a0152600081816103d701528181610d7f015281816111b00152818161170101528181611a6301528181611e7201528181611ff8015281816121f3015261233c01526000610de401526000610db40152600061037001526130826000f3fe608060405234801561001057600080fd5b50600436106102745760003560e01c806370a0823111610151578063ba087652116100c3578063d505accf11610087578063d505accf146105e1578063d905777e146105f4578063dd62ed3e1461061d578063ec11e16714610648578063ee97f7f31461066f578063ef8b30f71461069657600080fd5b8063ba08765214610595578063bf7e214f146105a8578063c63d75b6146103f9578063c6e6f592146105bb578063ce96cb77146105ce57600080fd5b806395d89b411161011557806395d89b41146105065780639a9ba4da1461050e578063a1ea7d6a14610535578063a9059cbb1461055c578063b3d7f6b91461056f578063b460af941461058257600080fd5b806370a082311461048d5780637a9e5e4b146104ad5780637ecebe00146104c05780638da5cb5b146104e057806394bf804d146104f357600080fd5b80633636a930116101ea5780634b5d5fbd116101ae5780634b5d5fbd1461040e5780634cdad506146104215780635fd35eb91461043457806361d0e43a1461045457806362c06767146104675780636e553f651461047a57600080fd5b80633636a930146103a45780633644e515146103b75780633776d3d9146103bf57806338d52e0f146103d2578063402d267d146103f957600080fd5b806313af40351161023c57806313af4035146102f257806316f0115b1461030757806318160ddd1461034657806321fcf7501461034f57806323b872dd14610358578063313ce5671461036b57600080fd5b806301e1d1141461027957806306fdde031461029457806307a2d13a146102a9578063095ea7b3146102bc5780630a28a477146102df575b600080fd5b6102816106a9565b6040519081526020015b60405180910390f35b61029c6107c3565b60405161028b9190612c1a565b6102816102b7366004612c6f565b610851565b6102cf6102ca366004612ca0565b61087e565b604051901515815260200161028b565b6102816102ed366004612c6f565b6108eb565b610305610300366004612ccc565b61090b565b005b61032e7f000000000000000000000000000000000000000000000000000000000000000081565b6040516001600160a01b03909116815260200161028b565b61028160045481565b61028160095481565b6102cf610366366004612ce9565b610991565b6103927f000000000000000000000000000000000000000000000000000000000000000081565b60405160ff909116815260200161028b565b6103056103b2366004612ca0565b610a71565b610281610db0565b6103056103cd366004612ca0565b610e06565b61032e7f000000000000000000000000000000000000000000000000000000000000000081565b610281610407366004612ccc565b5060001990565b61028161041c366004612ccc565b611321565b61028161042f366004612c6f565b61191c565b610281610442366004612ccc565b600a6020526000908152604090205481565b610305610462366004612ca0565b611927565b610305610475366004612ce9565b611ce7565b610281610488366004612d2a565b611e1d565b61028161049b366004612ccc565b60056020526000908152604090205481565b6103056104bb366004612ccc565b611ef4565b6102816104ce366004612ccc565b60076020526000908152604090205481565b60005461032e906001600160a01b031681565b610281610501366004612d2a565b611fde565b61029c61207a565b61032e7f000000000000000000000000000000000000000000000000000000000000000081565b61032e7f000000000000000000000000000000000000000000000000000000000000000081565b6102cf61056a366004612ca0565b612087565b61028161057d366004612c6f565b6120ed565b610281610590366004612d5a565b61210c565b6102816105a3366004612d5a565b61221a565b60015461032e906001600160a01b031681565b6102816105c9366004612c6f565b612363565b6102816105dc366004612ccc565b612383565b6103056105ef366004612d9c565b6123a5565b610281610602366004612ccc565b6001600160a01b031660009081526005602052604090205490565b61028161062b366004612e13565b600660209081526000928352604080842090915290825290205481565b61032e7f000000000000000000000000000000000000000000000000000000000000000081565b61032e7f000000000000000000000000000000000000000000000000000000000000000081565b6102816106a4366004612c6f565b6125e9565b60006107be7f00000000000000000000000000000000000000000000000000000000000000006001600160a01b031663182df0f56040518163ffffffff1660e01b8152600401602060405180830381865afa15801561070c573d6000803e3d6000fd5b505050506040513d601f19601f820116820180604052508101906107309190612e41565b6040516370a0823160e01b81523060048201527f00000000000000000000000000000000000000000000000000000000000000006001600160a01b0316906370a0823190602401602060405180830381865afa158015610794573d6000803e3d6000fd5b505050506040513d601f19601f820116820180604052508101906107b89190612e41565b90612671565b905090565b600280546107d090612e5a565b80601f01602080910402602001604051908101604052809291908181526020018280546107fc90612e5a565b80156108495780601f1061081e57610100808354040283529160200191610849565b820191906000526020600020905b81548152906001019060200180831161082c57829003601f168201915b505050505081565b6004546000908015610875576108706108686106a9565b849083612682565b610877565b825b9392505050565b3360008181526006602090815260408083206001600160a01b038716808552925280832085905551919290917f8c5be1e5ebec7d5bd14f71427d1e84f3dd0314c0f7b2291e5b200ac8c7c3b925906108d99086815260200190565b60405180910390a35060015b92915050565b600454600090801561087557610870816109036106a9565b8591906126a1565b610921336000356001600160e01b0319166126cf565b6109465760405162461bcd60e51b815260040161093d90612e95565b60405180910390fd5b600080546001600160a01b0319166001600160a01b0383169081178255604051909133917f8292fce18fa69edf4db7b94ea2e58241df0ae57f97e0a6c9b29067028bf92d769190a350565b6001600160a01b038316600090815260066020908152604080832033845290915281205460001981146109ed576109c88382612ed1565b6001600160a01b03861660009081526006602090815260408083203384529091529020555b6001600160a01b03851660009081526005602052604081208054859290610a15908490612ed1565b90915550506001600160a01b038085166000818152600560205260409081902080548701905551909187169060008051602061302d83398151915290610a5e9087815260200190565b60405180910390a3506001949350505050565b600854600114610a935760405162461bcd60e51b815260040161093d90612ee8565b600260088190555060007f00000000000000000000000000000000000000000000000000000000000000006001600160a01b031663bf7e214f6040518163ffffffff1660e01b8152600401602060405180830381865afa158015610afb573d6000803e3d6000fd5b505050506040513d601f19601f82011682018060405250810190610b1f9190612f0c565b90506001600160a01b03811615801590610bb1575060405163b700961360e01b81526001600160a01b0382169063b700961390610b7090339030906001600160e01b03196000351690600401612f29565b602060405180830381865afa158015610b8d573d6000803e3d6000fd5b505050506040513d601f19601f82011682018060405250810190610bb19190612f56565b80610c4e57507f00000000000000000000000000000000000000000000000000000000000000006001600160a01b0316638da5cb5b6040518163ffffffff1660e01b8152600401602060405180830381865afa158015610c15573d6000803e3d6000fd5b505050506040513d601f19601f82011682018060405250810190610c399190612f0c565b6001600160a01b0316336001600160a01b0316145b610c6a5760405162461bcd60e51b815260040161093d90612e95565b6040518281526001600160a01b0384169033907fafde937308e3465d892de3ee55bed5ca395385a6ebe0823137d0c300f5aaf6359060200160405180910390a360405163852a12e360e01b8152600481018390527f00000000000000000000000000000000000000000000000000000000000000006001600160a01b03169063852a12e3906024016020604051808303816000875af1158015610d11573d6000803e3d6000fd5b505050506040513d601f19601f82011682018060405250810190610d359190612e41565b15610d725760405162461bcd60e51b815260206004820152600d60248201526c14915111515357d19052531151609a1b604482015260640161093d565b610da66001600160a01b037f0000000000000000000000000000000000000000000000000000000000000000168484612779565b5050600160085550565b60007f00000000000000000000000000000000000000000000000000000000000000004614610de1576107be6127f1565b507f000000000000000000000000000000000000000000000000000000000000000090565b600854600114610e285760405162461bcd60e51b815260040161093d90612ee8565b60026008556000546001600160a01b0316331461100d5760007f00000000000000000000000000000000000000000000000000000000000000006001600160a01b031663bf7e214f6040518163ffffffff1660e01b8152600401602060405180830381865afa158015610e9f573d6000803e3d6000fd5b505050506040513d601f19601f82011682018060405250810190610ec39190612f0c565b90506001600160a01b0381161580610f55575060405163b700961360e01b81526001600160a01b0382169063b700961390610f1290339030906001600160e01b03196000351690600401612f29565b602060405180830381865afa158015610f2f573d6000803e3d6000fd5b505050506040513d601f19601f82011682018060405250810190610f539190612f56565b155b1561100b576001546001600160a01b03168015801590610fed575060405163b700961360e01b81526001600160a01b0382169063b700961390610fac90339030906001600160e01b03196000351690600401612f29565b602060405180830381865afa158015610fc9573d6000803e3d6000fd5b505050506040513d601f19601f82011682018060405250810190610fed9190612f56565b6110095760405162461bcd60e51b815260040161093d90612e95565b505b505b6001600160a01b0382166000908152600a602052604081208054839290611035908490612ed1565b92505081905550806009600082825461104e9190612ed1565b90915550506040518181526001600160a01b0383169033907f9bbe84c9c6d0d7d6dc77064f8403d848cace721f1ea41b3c61699f3f2d2aaff49060200160405180910390a3604051632d182be560e21b815260048101829052306024820181905260448201526001600160a01b0383169063b460af94906064016020604051808303816000875af11580156110e7573d6000803e3d6000fd5b505050506040513d601f19601f8201168201806040525081019061110b9190612e41565b506040516305eff7ef60e21b81523060048201526000907f00000000000000000000000000000000000000000000000000000000000000006001600160a01b0316906317bfdfbc906024016020604051808303816000875af1158015611175573d6000803e3d6000fd5b505050506040513d601f19601f820116820180604052508101906111999190612e41565b604051630bb704cf60e01b81526001600160a01b037f0000000000000000000000000000000000000000000000000000000000000000811660048301528581166024830152604482018590529192507f000000000000000000000000000000000000000000000000000000000000000090911690630bb704cf90606401600060405180830381600087803b15801561123057600080fd5b505af1158015611244573d6000803e3d6000fd5b5050505080821115611254578091505b8115610da65760405163073a938160e11b8152600481018390527f00000000000000000000000000000000000000000000000000000000000000006001600160a01b031690630e752702906024016020604051808303816000875af11580156112c1573d6000803e3d6000fd5b505050506040513d601f19601f820116820180604052508101906112e59190612e41565b15610da65760405162461bcd60e51b815260206004820152600c60248201526b149154105657d1905253115160a21b604482015260640161093d565b60006008546001146113455760405162461bcd60e51b815260040161093d90612ee8565b60026008556000546001600160a01b0316331461152a5760007f00000000000000000000000000000000000000000000000000000000000000006001600160a01b031663bf7e214f6040518163ffffffff1660e01b8152600401602060405180830381865afa1580156113bc573d6000803e3d6000fd5b505050506040513d601f19601f820116820180604052508101906113e09190612f0c565b90506001600160a01b0381161580611472575060405163b700961360e01b81526001600160a01b0382169063b70096139061142f90339030906001600160e01b03196000351690600401612f29565b602060405180830381865afa15801561144c573d6000803e3d6000fd5b505050506040513d601f19601f820116820180604052508101906114709190612f56565b155b15611528576001546001600160a01b0316801580159061150a575060405163b700961360e01b81526001600160a01b0382169063b7009613906114c990339030906001600160e01b03196000351690600401612f29565b602060405180830381865afa1580156114e6573d6000803e3d6000fd5b505050506040513d601f19601f8201168201806040525081019061150a9190612f56565b6115265760405162461bcd60e51b815260040161093d90612e95565b505b505b6001600160a01b0382166000908152600a6020526040902054806115815760405162461bcd60e51b815260206004820152600e60248201526d1393d7d1915257d093d3d4d5115160921b604482015260640161093d565b6040516370a0823160e01b815230600482015260009082906001600160a01b03861690634cdad5069082906370a0823190602401602060405180830381865afa1580156115d2573d6000803e3d6000fd5b505050506040513d601f19601f820116820180604052508101906115f69190612e41565b6040518263ffffffff1660e01b815260040161161491815260200190565b602060405180830381865afa158015611631573d6000803e3d6000fd5b505050506040513d601f19601f820116820180604052508101906116559190612e41565b61165f9190612ed1565b905060007f00000000000000000000000000000000000000000000000000000000000000006001600160a01b031663b87ee7af6040518163ffffffff1660e01b8152600401602060405180830381865afa1580156116c1573d6000803e3d6000fd5b505050506040513d601f19601f820116820180604052508101906116e59190612f0c565b60405162ede82760e41b81523060048201526001600160a01b037f0000000000000000000000000000000000000000000000000000000000000000811660248301529190911690630ede827090604401602060405180830381865afa158015611752573d6000803e3d6000fd5b505050506040513d601f19601f820116820180604052508101906117769190612e41565b905060006117848383612671565b90506117908184612ed1565b60408051838152602081018390529196506001600160a01b0388169133917f230ea7611927651b3794f5980dc4d2cbec255585dcb10c3ccbc3e4614d8455b1910160405180910390a3604051632d182be560e21b815260048101849052306024820181905260448201526001600160a01b0387169063b460af94906064016020604051808303816000875af115801561182d573d6000803e3d6000fd5b505050506040513d601f19601f820116820180604052508101906118519190612e41565b50801561190d5760405163a9059cbb60e01b81526001600160a01b037f000000000000000000000000000000000000000000000000000000000000000081166004830152602482018390527f0000000000000000000000000000000000000000000000000000000000000000169063a9059cbb906044016020604051808303816000875af11580156118e7573d6000803e3d6000fd5b505050506040513d601f19601f8201168201806040525081019061190b9190612f56565b505b50506001600855509092915050565b60006108e582610851565b6008546001146119495760405162461bcd60e51b815260040161093d90612ee8565b6002600855611964336001600160e01b0319600035166126cf565b6119805760405162461bcd60e51b815260040161093d90612e95565b7f00000000000000000000000000000000000000000000000000000000000000006001600160a01b0316826001600160a01b03166338d52e0f6040518163ffffffff1660e01b8152600401602060405180830381865afa1580156119e8573d6000803e3d6000fd5b505050506040513d601f19601f82011682018060405250810190611a0c9190612f0c565b6001600160a01b031614611a4c5760405162461bcd60e51b81526020600482015260076024820152664e4f545f46454960c81b604482015260640161093d565b60405163074b0b3160e31b81526001600160a01b037f0000000000000000000000000000000000000000000000000000000000000000811660048301528381166024830152604482018390527f00000000000000000000000000000000000000000000000000000000000000001690633a58598890606401600060405180830381600087803b158015611ade57600080fd5b505af1158015611af2573d6000803e3d6000fd5b505050508060096000828254611b089190612f78565b90915550506001600160a01b0382166000908152600a602052604081208054839290611b35908490612f78565b90915550506040518181526001600160a01b0383169033907f46fd11d98227e9c54f39734c7aa744b4551b6734cf4d69b046e7a199b66119849060200160405180910390a360405163317afabb60e21b8152600481018290527f00000000000000000000000000000000000000000000000000000000000000006001600160a01b03169063c5ebeaec906024016020604051808303816000875af1158015611be1573d6000803e3d6000fd5b505050506040513d601f19601f82011682018060405250810190611c059190612e41565b15611c425760405162461bcd60e51b815260206004820152600d60248201526c1093d49493d5d7d19052531151609a1b604482015260640161093d565b611c766001600160a01b037f00000000000000000000000000000000000000000000000000000000000000001683836125f4565b604051636e553f6560e01b8152600481018290523060248201526001600160a01b03831690636e553f65906044016020604051808303816000875af1158015611cc3573d6000803e3d6000fd5b505050506040513d601f19601f82011682018060405250810190610da69190612e41565b611cfd336000356001600160e01b0319166126cf565b611d195760405162461bcd60e51b815260040161093d90612e95565b6001600160a01b0382166000908152600a6020526040902054158015611d7157507f00000000000000000000000000000000000000000000000000000000000000006001600160a01b0316826001600160a01b031614155b611dad5760405162461bcd60e51b815260206004820152600d60248201526c24a72b20a624a22faa27a5a2a760991b604482015260640161093d565b816001600160a01b0316836001600160a01b0316336001600160a01b03167fa0fae858a9c4a671705052e5103905b60b9c710986ae33bbd7c4108a96e8bdec84604051611dfc91815260200190565b60405180910390a4611e186001600160a01b0383168483612779565b505050565b6000611e28836125e9565b905080611e655760405162461bcd60e51b815260206004820152600b60248201526a5a45524f5f53484152455360a81b604482015260640161093d565b611e9a6001600160a01b037f00000000000000000000000000000000000000000000000000000000000000001633308661288b565b611ea48282612915565b60408051848152602081018390526001600160a01b0384169133917fdcbc1c05240f31ff3ad067ef1ee35ce4997762752e3a095284754544f4c709d7910160405180910390a36108e5838261296f565b6000546001600160a01b0316331480611f89575060015460405163b700961360e01b81526001600160a01b039091169063b700961390611f4890339030906001600160e01b03196000351690600401612f29565b602060405180830381865afa158015611f65573d6000803e3d6000fd5b505050506040513d601f19601f82011682018060405250810190611f899190612f56565b611f9257600080fd5b600180546001600160a01b0319166001600160a01b03831690811790915560405133907fa3396fd7f6e0a21b50e5089d2da70d5ac0a3bbbd1f617a93f134b7638998019890600090a350565b6000611fe9836120ed565b90506120206001600160a01b037f00000000000000000000000000000000000000000000000000000000000000001633308461288b565b61202a8284612915565b60408051828152602081018590526001600160a01b0384169133917fdcbc1c05240f31ff3ad067ef1ee35ce4997762752e3a095284754544f4c709d7910160405180910390a36108e5818461296f565b600380546107d090612e5a565b336000908152600560205260408120805483919083906120a8908490612ed1565b90915550506001600160a01b0383166000818152600560205260409081902080548501905551339060008051602061302d833981519152906108d99086815260200190565b6004546000908015610875576108706121046106a9565b8490836126a1565b6000612117846108eb565b9050336001600160a01b03831614612187576001600160a01b03821660009081526006602090815260408083203384529091529020546000198114612185576121608282612ed1565b6001600160a01b03841660009081526006602090815260408083203384529091529020555b505b6121918482612a97565b61219b8282612bb8565b60408051858152602081018390526001600160a01b03808516929086169133917ffbde797d201c681b91056529119e0b02407c7bb96a4a2c75c01fc9667232c8db910160405180910390a46108776001600160a01b037f0000000000000000000000000000000000000000000000000000000000000000168486612779565b6000336001600160a01b0383161461228a576001600160a01b03821660009081526006602090815260408083203384529091529020546000198114612288576122638582612ed1565b6001600160a01b03841660009081526006602090815260408083203384529091529020555b505b6122938461191c565b9050806122d05760405162461bcd60e51b815260206004820152600b60248201526a5a45524f5f41535345545360a81b604482015260640161093d565b6122da8185612a97565b6122e48285612bb8565b60408051828152602081018690526001600160a01b03808516929086169133917ffbde797d201c681b91056529119e0b02407c7bb96a4a2c75c01fc9667232c8db910160405180910390a46108776001600160a01b037f0000000000000000000000000000000000000000000000000000000000000000168483612779565b6004546000908015610875576108708161237b6106a9565b859190612682565b6001600160a01b0381166000908152600560205260408120546108e590610851565b428410156123f55760405162461bcd60e51b815260206004820152601760248201527f5045524d49545f444541444c494e455f45585049524544000000000000000000604482015260640161093d565b60006001612401610db0565b6001600160a01b038a811660008181526007602090815260409182902080546001810190915582517f6e71edae12b1b97f4d1f60370fef10105fa2faae0126114a169c64845d6126c98184015280840194909452938d166060840152608083018c905260a083019390935260c08083018b90528151808403909101815260e08301909152805192019190912061190160f01b6101008301526101028201929092526101228101919091526101420160408051601f198184030181528282528051602091820120600084529083018083525260ff871690820152606081018590526080810184905260a0016020604051602081039080840390855afa15801561250d573d6000803e3d6000fd5b5050604051601f1901519150506001600160a01b038116158015906125435750876001600160a01b0316816001600160a01b0316145b6125805760405162461bcd60e51b815260206004820152600e60248201526d24a72b20a624a22fa9a4a3a722a960911b604482015260640161093d565b6001600160a01b0390811660009081526006602090815260408083208a8516808552908352928190208990555188815291928a16917f8c5be1e5ebec7d5bd14f71427d1e84f3dd0314c0f7b2291e5b200ac8c7c3b925910160405180910390a350505050505050565b60006108e582612363565b600060405163095ea7b360e01b8152836004820152826024820152602060006044836000895af13d15601f3d116001600051141617169150508061266b5760405162461bcd60e51b815260206004820152600e60248201526d1054141493d59157d1905253115160921b604482015260640161093d565b50505050565b60006108778383670de0b6b3a76400005b82820281151584158583048514171661269a57600080fd5b0492915050565b8282028115158415858304851417166126b957600080fd5b6001826001830304018115150290509392505050565b6001546000906001600160a01b03168015801590612759575060405163b700961360e01b81526001600160a01b0382169063b70096139061271890879030908890600401612f29565b602060405180830381865afa158015612735573d6000803e3d6000fd5b505050506040513d601f19601f820116820180604052508101906127599190612f56565b8061277157506000546001600160a01b038581169116145b949350505050565b600060405163a9059cbb60e01b8152836004820152826024820152602060006044836000895af13d15601f3d116001600051141617169150508061266b5760405162461bcd60e51b815260206004820152600f60248201526e1514905394d1915497d19052531151608a1b604482015260640161093d565b60007f8b73c3c69bb8fe3d512ecc4cf759cc79239f7b179b0ffacaa9a75d522b39400f60026040516128239190612f90565b6040805191829003822060208301939093528101919091527fc89efdaa54c0f20c7adf612882df0950f5a951637e0307cdcb4c672f298b8bc660608201524660808201523060a082015260c00160405160208183030381529060405280519060200120905090565b60006040516323b872dd60e01b81528460048201528360248201528260448201526020600060648360008a5af13d15601f3d116001600051141617169150508061290e5760405162461bcd60e51b81526020600482015260146024820152731514905394d1915497d19493d357d1905253115160621b604482015260640161093d565b5050505050565b80600460008282546129279190612f78565b90915550506001600160a01b03821660008181526005602090815260408083208054860190555184815260008051602061302d83398151915291015b60405180910390a35050565b6008546001146129915760405162461bcd60e51b815260040161093d90612ee8565b60026008556129ac336001600160e01b0319600035166126cf565b6129c85760405162461bcd60e51b815260040161093d90612e95565b60405163140e25ad60e31b8152600481018390527f00000000000000000000000000000000000000000000000000000000000000006001600160a01b03169063a0712d68906024016020604051808303816000875af1158015612a2f573d6000803e3d6000fd5b505050506040513d601f19601f82011682018060405250810190612a539190612e41565b15612a8e5760405162461bcd60e51b815260206004820152600b60248201526a1352539517d1905253115160aa1b604482015260640161093d565b50506001600855565b600854600114612ab95760405162461bcd60e51b815260040161093d90612ee8565b6002600855612ad4336001600160e01b0319600035166126cf565b612af05760405162461bcd60e51b815260040161093d90612e95565b60405163852a12e360e01b8152600481018390527f00000000000000000000000000000000000000000000000000000000000000006001600160a01b03169063852a12e3906024016020604051808303816000875af1158015612b57573d6000803e3d6000fd5b505050506040513d601f19601f82011682018060405250810190612b7b9190612e41565b15612a8e5760405162461bcd60e51b815260206004820152600d60248201526c14915111515357d19052531151609a1b604482015260640161093d565b6001600160a01b03821660009081526005602052604081208054839290612be0908490612ed1565b90915550506004805482900390556040518181526000906001600160a01b0384169060008051602061302d83398151915290602001612963565b600060208083528351808285015260005b81811015612c4757858101830151858201604001528201612c2b565b81811115612c59576000604083870101525b50601f01601f1916929092016040019392505050565b600060208284031215612c8157600080fd5b5035919050565b6001600160a01b0381168114612c9d57600080fd5b50565b60008060408385031215612cb357600080fd5b8235612cbe81612c88565b946020939093013593505050565b600060208284031215612cde57600080fd5b813561087781612c88565b600080600060608486031215612cfe57600080fd5b8335612d0981612c88565b92506020840135612d1981612c88565b929592945050506040919091013590565b60008060408385031215612d3d57600080fd5b823591506020830135612d4f81612c88565b809150509250929050565b600080600060608486031215612d6f57600080fd5b833592506020840135612d8181612c88565b91506040840135612d9181612c88565b809150509250925092565b600080600080600080600060e0888a031215612db757600080fd5b8735612dc281612c88565b96506020880135612dd281612c88565b95506040880135945060608801359350608088013560ff81168114612df657600080fd5b9699959850939692959460a0840135945060c09093013592915050565b60008060408385031215612e2657600080fd5b8235612e3181612c88565b91506020830135612d4f81612c88565b600060208284031215612e5357600080fd5b5051919050565b600181811c90821680612e6e57607f821691505b60208210811415612e8f57634e487b7160e01b600052602260045260246000fd5b50919050565b6020808252600c908201526b15539055551213d49256915160a21b604082015260600190565b634e487b7160e01b600052601160045260246000fd5b600082821015612ee357612ee3612ebb565b500390565b6020808252600a90820152695245454e5452414e435960b01b604082015260600190565b600060208284031215612f1e57600080fd5b815161087781612c88565b6001600160a01b0393841681529190921660208201526001600160e01b0319909116604082015260600190565b600060208284031215612f6857600080fd5b8151801515811461087757600080fd5b60008219821115612f8b57612f8b612ebb565b500190565b600080835481600182811c915080831680612fac57607f831692505b6020808410821415612fcc57634e487b7160e01b86526022600452602486fd5b818015612fe05760018114612ff15761301e565b60ff1986168952848901965061301e565b60008a81526020902060005b868110156130165781548b820152908501908301612ffd565b505084890196505b50949897505050505050505056feddf252ad1be2c89b69c2b068fc378daa952ba7f163c4a11628f55a4df523b3efa26469706673582212209d8de5aa954f03b1b47f690c3acd58f63a1aa54b25f7ffc96453ead34c58ece364736f6c634300080a0033a264697066735822122057350556b49bab4d4b9cc01edf237f86358be39c46ce5a294df86a65557f2df364736f6c634300080a0033",
    "linkReferences": {}
  }
}