{
  "abi": [
    {
      "inputs": [
        {
          "internalType": "address",
          "name": "_cToken",
          "type": "address"
        },
        {
          "internalType": "string",
          "name": "name",
          "type": "string"
        },
        {
          "internalType": "string",
          "name": "symbol",
          "type": "string"
        }
      ],
      "stateMutability": "nonpayable",
      "type": "constructor"
    },
    {
      "anonymous": false,
      "inputs": [
        {
          "indexed": true,
          "internalType": "address",
          "name": "owner",
          "type": "address"
        },
        {
          "indexed": true,
          "internalType": "address",
          "name": "spender",
          "type": "address"
        },
        {
          "indexed": false,
          "internalType": "uint256",
          "name": "amount",
          "type": "uint256"
        }
      ],
      "name": "Approval",
      "type": "event"
    },
    {
      "anonymous": false,
      "inputs": [
        {
          "indexed": true,
          "internalType": "address",
          "name": "caller",
          "type": "address"
        },
        {
          "indexed": true,
          "internalType": "address",
          "name": "owner",
          "type": "address"
        },
        {
          "indexed": false,
          "internalType": "uint256",
          "name": "assets",
          "type": "uint256"
        },
        {
          "indexed": false,
          "internalType": "uint256",
          "name": "shares",
          "type": "uint256"
        }
      ],
      "name": "Deposit",
      "type": "event"
    },
    {
      "anonymous": false,
      "inputs": [
        {
          "indexed": true,
          "internalType": "address",
          "name": "from",
          "type": "address"
        },
        {
          "indexed": true,
          "internalType": "address",
          "name": "to",
          "type": "address"
        },
        {
          "indexed": false,
          "internalType": "uint256",
          "name": "amount",
          "type": "uint256"
        }
      ],
      "name": "Transfer",
      "type": "event"
    },
    {
      "anonymous": false,
      "inputs": [
        {
          "indexed": true,
          "internalType": "address",
          "name": "caller",
          "type": "address"
        },
        {
          "indexed": true,
          "internalType": "address",
          "name": "receiver",
          "type": "address"
        },
        {
          "indexed": true,
          "internalType": "address",
          "name": "owner",
          "type": "address"
        },
        {
          "indexed": false,
          "internalType": "uint256",
          "name": "assets",
          "type": "uint256"
        },
        {
          "indexed": false,
          "internalType": "uint256",
          "name": "shares",
          "type": "uint256"
        }
      ],
      "name": "Withdraw",
      "type": "event"
    },
    {
      "inputs": [],
      "name": "DOMAIN_SEPARATOR",
      "outputs": [
        {
          "internalType": "bytes32",
          "name": "",
          "type": "bytes32"
        }
      ],
      "stateMutability": "view",
      "type": "function"
    },
    {
      "inputs": [
        {
          "internalType": "address",
          "name": "",
          "type": "address"
        },
        {
          "internalType": "address",
          "name": "",
          "type": "address"
        }
      ],
      "name": "allowance",
      "outputs": [
        {
          "internalType": "uint256",
          "name": "",
          "type": "uint256"
        }
      ],
      "stateMutability": "view",
      "type": "function"
    },
    {
      "inputs": [
        {
          "internalType": "address",
          "name": "spender",
          "type": "address"
        },
        {
          "internalType": "uint256",
          "name": "amount",
          "type": "uint256"
        }
      ],
      "name": "approve",
      "outputs": [
        {
          "internalType": "bool",
          "name": "",
          "type": "bool"
        }
      ],
      "stateMutability": "nonpayable",
      "type": "function"
    },
    {
      "inputs": [],
      "name": "asset",
      "outputs": [
        {
          "internalType": "contract ERC20",
          "name": "",
          "type": "address"
        }
      ],
      "stateMutability": "view",
      "type": "function"
    },
    {
      "inputs": [
        {
          "internalType": "address",
          "name": "",
          "type": "address"
        }
      ],
      "name": "balanceOf",
      "outputs": [
        {
          "internalType": "uint256",
          "name": "",
          "type": "uint256"
        }
      ],
      "stateMutability": "view",
      "type": "function"
    },
    {
      "inputs": [],
      "name": "cToken",
      "outputs": [
        {
          "internalType": "contract CToken",
          "name": "",
          "type": "address"
        }
      ],
      "stateMutability": "view",
      "type": "function"
    },
    {
      "inputs": [],
      "name": "cTokenUnderlying",
      "outputs": [
        {
          "internalType": "contract ERC20",
          "name": "",
          "type": "address"
        }
      ],
      "stateMutability": "view",
      "type": "function"
    },
    {
      "inputs": [
        {
          "internalType": "uint256",
          "name": "shares",
          "type": "uint256"
        }
      ],
      "name": "convertToAssets",
      "outputs": [
        {
          "internalType": "uint256",
          "name": "",
          "type": "uint256"
        }
      ],
      "stateMutability": "view",
      "type": "function"
    },
    {
      "inputs": [
        {
          "internalType": "uint256",
          "name": "assets",
          "type": "uint256"
        }
      ],
      "name": "convertToShares",
      "outputs": [
        {
          "internalType": "uint256",
          "name": "",
          "type": "uint256"
        }
      ],
      "stateMutability": "view",
      "type": "function"
    },
    {
      "inputs": [],
      "name": "decimals",
      "outputs": [
        {
          "internalType": "uint8",
          "name": "",
          "type": "uint8"
        }
      ],
      "stateMutability": "view",
      "type": "function"
    },
    {
      "inputs": [
        {
          "internalType": "uint256",
          "name": "assets",
          "type": "uint256"
        },
        {
          "internalType": "address",
          "name": "receiver",
          "type": "address"
        }
      ],
      "name": "deposit",
      "outputs": [
        {
          "internalType": "uint256",
          "name": "shares",
          "type": "uint256"
        }
      ],
      "stateMutability": "nonpayable",
      "type": "function"
    },
    {
      "inputs": [
        {
          "internalType": "address",
          "name": "",
          "type": "address"
        }
      ],
      "name": "maxDeposit",
      "outputs": [
        {
          "internalType": "uint256",
          "name": "",
          "type": "uint256"
        }
      ],
      "stateMutability": "view",
      "type": "function"
    },
    {
      "inputs": [
        {
          "internalType": "address",
          "name": "",
          "type": "address"
        }
      ],
      "name": "maxMint",
      "outputs": [
        {
          "internalType": "uint256",
          "name": "",
          "type": "uint256"
        }
      ],
      "stateMutability": "view",
      "type": "function"
    },
    {
      "inputs": [
        {
          "internalType": "address",
          "name": "owner",
          "type": "address"
        }
      ],
      "name": "maxRedeem",
      "outputs": [
        {
          "internalType": "uint256",
          "name": "",
          "type": "uint256"
        }
      ],
      "stateMutability": "view",
      "type": "function"
    },
    {
      "inputs": [
        {
          "internalType": "address",
          "name": "owner",
          "type": "address"
        }
      ],
      "name": "maxWithdraw",
      "outputs": [
        {
          "internalType": "uint256",
          "name": "",
          "type": "uint256"
        }
      ],
      "stateMutability": "view",
      "type": "function"
    },
    {
      "inputs": [
        {
          "internalType": "uint256",
          "name": "shares",
          "type": "uint256"
        },
        {
          "internalType": "address",
          "name": "receiver",
          "type": "address"
        }
      ],
      "name": "mint",
      "outputs": [
        {
          "internalType": "uint256",
          "name": "assets",
          "type": "uint256"
        }
      ],
      "stateMutability": "nonpayable",
      "type": "function"
    },
    {
      "inputs": [],
      "name": "name",
      "outputs": [
        {
          "internalType": "string",
          "name": "",
          "type": "string"
        }
      ],
      "stateMutability": "view",
      "type": "function"
    },
    {
      "inputs": [
        {
          "internalType": "address",
          "name": "",
          "type": "address"
        }
      ],
      "name": "nonces",
      "outputs": [
        {
          "internalType": "uint256",
          "name": "",
          "type": "uint256"
        }
      ],
      "stateMutability": "view",
      "type": "function"
    },
    {
      "inputs": [
        {
          "internalType": "address",
          "name": "owner",
          "type": "address"
        },
        {
          "internalType": "address",
          "name": "spender",
          "type": "address"
        },
        {
          "internalType": "uint256",
          "name": "value",
          "type": "uint256"
        },
        {
          "internalType": "uint256",
          "name": "deadline",
          "type": "uint256"
        },
        {
          "internalType": "uint8",
          "name": "v",
          "type": "uint8"
        },
        {
          "internalType": "bytes32",
          "name": "r",
          "type": "bytes32"
        },
        {
          "internalType": "bytes32",
          "name": "s",
          "type": "bytes32"
        }
      ],
      "name": "permit",
      "outputs": [],
      "stateMutability": "nonpayable",
      "type": "function"
    },
    {
      "inputs": [
        {
          "internalType": "uint256",
          "name": "assets",
          "type": "uint256"
        }
      ],
      "name": "previewDeposit",
      "outputs": [
        {
          "internalType": "uint256",
          "name": "",
          "type": "uint256"
        }
      ],
      "stateMutability": "view",
      "type": "function"
    },
    {
      "inputs": [
        {
          "internalType": "uint256",
          "name": "shares",
          "type": "uint256"
        }
      ],
      "name": "previewMint",
      "outputs": [
        {
          "internalType": "uint256",
          "name": "",
          "type": "uint256"
        }
      ],
      "stateMutability": "view",
      "type": "function"
    },
    {
      "inputs": [
        {
          "internalType": "uint256",
          "name": "shares",
          "type": "uint256"
        }
      ],
      "name": "previewRedeem",
      "outputs": [
        {
          "internalType": "uint256",
          "name": "",
          "type": "uint256"
        }
      ],
      "stateMutability": "view",
      "type": "function"
    },
    {
      "inputs": [
        {
          "internalType": "uint256",
          "name": "assets",
          "type": "uint256"
        }
      ],
      "name": "previewWithdraw",
      "outputs": [
        {
          "internalType": "uint256",
          "name": "",
          "type": "uint256"
        }
      ],
      "stateMutability": "view",
      "type": "function"
    },
    {
      "inputs": [
        {
          "internalType": "uint256",
          "name": "shares",
          "type": "uint256"
        },
        {
          "internalType": "address",
          "name": "receiver",
          "type": "address"
        },
        {
          "internalType": "address",
          "name": "owner",
          "type": "address"
        }
      ],
      "name": "redeem",
      "outputs": [
        {
          "internalType": "uint256",
          "name": "assets",
          "type": "uint256"
        }
      ],
      "stateMutability": "nonpayable",
      "type": "function"
    },
    {
      "inputs": [],
      "name": "symbol",
      "outputs": [
        {
          "internalType": "string",
          "name": "",
          "type": "string"
        }
      ],
      "stateMutability": "view",
      "type": "function"
    },
    {
      "inputs": [],
      "name": "totalAssets",
      "outputs": [
        {
          "internalType": "uint256",
          "name": "",
          "type": "uint256"
        }
      ],
      "stateMutability": "view",
      "type": "function"
    },
    {
      "inputs": [],
      "name": "totalSupply",
      "outputs": [
        {
          "internalType": "uint256",
          "name": "",
          "type": "uint256"
        }
      ],
      "stateMutability": "view",
      "type": "function"
    },
    {
      "inputs": [
        {
          "internalType": "address",
          "name": "to",
          "type": "address"
        },
        {
          "internalType": "uint256",
          "name": "amount",
          "type": "uint256"
        }
      ],
      "name": "transfer",
      "outputs": [
        {
          "internalType": "bool",
          "name": "",
          "type": "bool"
        }
      ],
      "stateMutability": "nonpayable",
      "type": "function"
    },
    {
      "inputs": [
        {
          "internalType": "address",
          "name": "from",
          "type": "address"
        },
        {
          "internalType": "address",
          "name": "to",
          "type": "address"
        },
        {
          "internalType": "uint256",
          "name": "amount",
          "type": "uint256"
        }
      ],
      "name": "transferFrom",
      "outputs": [
        {
          "internalType": "bool",
          "name": "",
          "type": "bool"
        }
      ],
      "stateMutability": "nonpayable",
      "type": "function"
    },
    {
      "inputs": [],
      "name": "unitroller",
      "outputs": [
        {
          "internalType": "contract Unitroller",
          "name": "",
          "type": "address"
        }
      ],
      "stateMutability": "view",
      "type": "function"
    },
    {
      "inputs": [
        {
          "internalType": "uint256",
          "name": "assets",
          "type": "uint256"
        },
        {
          "internalType": "address",
          "name": "receiver",
          "type": "address"
        },
        {
          "internalType": "address",
          "name": "owner",
          "type": "address"
        }
      ],
      "name": "withdraw",
      "outputs": [
        {
          "internalType": "uint256",
          "name": "shares",
          "type": "uint256"
        }
      ],
      "stateMutability": "nonpayable",
      "type": "function"
    }
  ],
  "bytecode": {
    "object": "0x6101606040523480156200001257600080fd5b5060405162002b3c38038062002b3c833981016040819052620000359162000485565b826001600160a01b0316636f307dc36040518163ffffffff1660e01b8152600401602060405180830381865afa15801562000074573d6000803e3d6000fd5b505050506040513d601f19601f820116820180604052508101906200009a919062000504565b82828181846001600160a01b031663313ce5676040518163ffffffff1660e01b8152600401602060405180830381865afa158015620000dd573d6000803e3d6000fd5b505050506040513d601f19601f820116820180604052508101906200010391906200052b565b825162000118906000906020860190620002f9565b5081516200012e906001906020850190620002f9565b5060ff81166080524660a052620001446200025d565b60c0525050506001600160a01b0392831660e0525050831661010081905260408051635fe3b56760e01b81529051635fe3b567916004808201926020929091908290030181865afa1580156200019e573d6000803e3d6000fd5b505050506040513d601f19601f82011682018060405250810190620001c4919062000504565b6001600160a01b0316610120816001600160a01b031681525050610100516001600160a01b0316636f307dc36040518163ffffffff1660e01b8152600401602060405180830381865afa15801562000220573d6000803e3d6000fd5b505050506040513d601f19601f8201168201806040525081019062000246919062000504565b6001600160a01b0316610140525062000631915050565b60007f8b73c3c69bb8fe3d512ecc4cf759cc79239f7b179b0ffacaa9a75d522b39400f60006040516200029191906200058d565b6040805191829003822060208301939093528101919091527fc89efdaa54c0f20c7adf612882df0950f5a951637e0307cdcb4c672f298b8bc660608201524660808201523060a082015260c00160405160208183030381529060405280519060200120905090565b828054620003079062000550565b90600052602060002090601f0160209004810192826200032b576000855562000376565b82601f106200034657805160ff191683800117855562000376565b8280016001018555821562000376579182015b828111156200037657825182559160200191906001019062000359565b506200038492915062000388565b5090565b5b8082111562000384576000815560010162000389565b6001600160a01b0381168114620003b557600080fd5b50565b634e487b7160e01b600052604160045260246000fd5b600082601f830112620003e057600080fd5b81516001600160401b0380821115620003fd57620003fd620003b8565b604051601f8301601f19908116603f01168101908282118183101715620004285762000428620003b8565b816040528381526020925086838588010111156200044557600080fd5b600091505b838210156200046957858201830151818301840152908201906200044a565b838211156200047b5760008385830101525b9695505050505050565b6000806000606084860312156200049b57600080fd5b8351620004a8816200039f565b60208501519093506001600160401b0380821115620004c657600080fd5b620004d487838801620003ce565b93506040860151915080821115620004eb57600080fd5b50620004fa86828701620003ce565b9150509250925092565b6000602082840312156200051757600080fd5b815162000524816200039f565b9392505050565b6000602082840312156200053e57600080fd5b815160ff811681146200052457600080fd5b600181811c908216806200056557607f821691505b602082108114156200058757634e487b7160e01b600052602260045260246000fd5b50919050565b600080835481600182811c915080831680620005aa57607f831692505b6020808410821415620005cb57634e487b7160e01b86526022600452602486fd5b818015620005e25760018114620005f45762000623565b60ff1986168952848901965062000623565b60008a81526020902060005b868110156200061b5781548b82015290850190830162000600565b505084890196505b509498975050505050505050565b60805160a05160c05160e051610100516101205161014051612424620007186000396000610268015260008181610432015281816107f00152818161088b01528181610e8f0152610f2a01526000818161035101528181610502015281816107c2015281816109140152818161094301528181610e6101528181610fb3015281816110140152818161131c01528181611cf101528181611d2c0152611df601526000818161030401528181610a4301528181610adf01528181610cda01528181610e230152611ccf0152600061078901526000610759015260006102c301526124246000f3fe608060405234801561001057600080fd5b50600436106101e55760003560e01c806370a082311161010f578063bad1d3da116100a2578063d505accf11610071578063d505accf1461048d578063d905777e146104a2578063dd62ed3e146104b5578063ef8b30f7146104e057600080fd5b8063bad1d3da1461042d578063c63d75b614610454578063c6e6f59214610467578063ce96cb771461047a57600080fd5b8063a9059cbb116100de578063a9059cbb146103e1578063b3d7f6b9146103f4578063b460af9414610407578063ba0876521461041a57600080fd5b806370a08231146103865780637ecebe00146103a657806394bf804d146103c657806395d89b41146103d957600080fd5b806323b872dd11610187578063402d267d11610156578063402d267d146103265780634cdad5061461033957806369e527da1461034c5780636e553f651461037357600080fd5b806323b872dd146102ab578063313ce567146102be5780633644e515146102f757806338d52e0f146102ff57600080fd5b8063095ea7b3116101c3578063095ea7b31461022d5780630a28a4771461025057806311a67d311461026357806318160ddd146102a257600080fd5b806301e1d114146101ea57806306fdde031461020557806307a2d13a1461021a575b600080fd5b6101f26104f3565b6040519081526020015b60405180910390f35b61020d61052d565b6040516101fc9190612014565b6101f2610228366004612069565b6105bb565b61024061023b36600461209a565b6105e8565b60405190151581526020016101fc565b6101f261025e366004612069565b610655565b61028a7f000000000000000000000000000000000000000000000000000000000000000081565b6040516001600160a01b0390911681526020016101fc565b6101f260025481565b6102406102b93660046120c6565b610675565b6102e57f000000000000000000000000000000000000000000000000000000000000000081565b60405160ff90911681526020016101fc565b6101f2610755565b61028a7f000000000000000000000000000000000000000000000000000000000000000081565b6101f2610334366004612107565b6107ab565b6101f2610347366004612069565b6109de565b61028a7f000000000000000000000000000000000000000000000000000000000000000081565b6101f2610381366004612124565b6109e9565b6101f2610394366004612107565b60036020526000908152604090205481565b6101f26103b4366004612107565b60056020526000908152604090205481565b6101f26103d4366004612124565b610ac5565b61020d610b61565b6102406103ef36600461209a565b610b6e565b6101f2610402366004612069565b610bd4565b6101f2610415366004612154565b610bf3565b6101f2610428366004612154565b610d01565b61028a7f000000000000000000000000000000000000000000000000000000000000000081565b6101f2610462366004612107565b610e4a565b6101f2610475366004612069565b610fef565b6101f2610488366004612107565b61100f565b6104a061049b366004612196565b6110d3565b005b6101f26104b0366004612107565b611317565b6101f26104c336600461220d565b600460209081526000928352604080842090915290825290205481565b6101f26104ee366004612069565b6113da565b60006105286001600160a01b037f000000000000000000000000000000000000000000000000000000000000000016306113e5565b905090565b6000805461053a9061223b565b80601f01602080910402602001604051908101604052809291908181526020018280546105669061223b565b80156105b35780601f10610588576101008083540402835291602001916105b3565b820191906000526020600020905b81548152906001019060200180831161059657829003601f168201915b505050505081565b60025460009080156105df576105da6105d26104f3565b849083611439565b6105e1565b825b9392505050565b3360008181526004602090815260408083206001600160a01b038716808552925280832085905551919290917f8c5be1e5ebec7d5bd14f71427d1e84f3dd0314c0f7b2291e5b200ac8c7c3b925906106439086815260200190565b60405180910390a35060015b92915050565b60025460009080156105df576105da8161066d6104f3565b859190611458565b6001600160a01b038316600090815260046020908152604080832033845290915281205460001981146106d1576106ac838261228c565b6001600160a01b03861660009081526004602090815260408083203384529091529020555b6001600160a01b038516600090815260036020526040812080548592906106f990849061228c565b90915550506001600160a01b03808516600081815260036020526040908190208054870190555190918716906000805160206123cf833981519152906107429087815260200190565b60405180910390a3506001949350505050565b60007f0000000000000000000000000000000000000000000000000000000000000000461461078657610528611486565b507f000000000000000000000000000000000000000000000000000000000000000090565b60405163731f0c2b60e01b81526001600160a01b037f0000000000000000000000000000000000000000000000000000000000000000818116600484015260009290917f0000000000000000000000000000000000000000000000000000000000000000169063731f0c2b90602401602060405180830381865afa158015610837573d6000803e3d6000fd5b505050506040513d601f19601f8201168201806040525081019061085b91906122a3565b156108695750600092915050565b6040516302c3bcbb60e01b81526001600160a01b0382811660048301526000917f0000000000000000000000000000000000000000000000000000000000000000909116906302c3bcbb90602401602060405180830381865afa1580156108d4573d6000803e3d6000fd5b505050506040513d601f19601f820116820180604052508101906108f891906122c5565b90508061090a57506000199392505050565b60006109c96109417f00000000000000000000000000000000000000000000000000000000000000006001600160a01b0316611520565b7f00000000000000000000000000000000000000000000000000000000000000006001600160a01b03166318160ddd6040518163ffffffff1660e01b8152600401602060405180830381865afa15801561099f573d6000803e3d6000fd5b505050506040513d601f19601f820116820180604052508101906109c391906122c5565b90611bc9565b90506109d5818361228c565b95945050505050565b600061064f826105bb565b60006109f4836113da565b905080610a365760405162461bcd60e51b815260206004820152600b60248201526a5a45524f5f53484152455360a81b60448201526064015b60405180910390fd5b610a6b6001600160a01b037f000000000000000000000000000000000000000000000000000000000000000016333086611bde565b610a758282611c68565b60408051848152602081018390526001600160a01b0384169133917fdcbc1c05240f31ff3ad067ef1ee35ce4997762752e3a095284754544f4c709d7910160405180910390a361064f8382611cc2565b6000610ad083610bd4565b9050610b076001600160a01b037f000000000000000000000000000000000000000000000000000000000000000016333084611bde565b610b118284611c68565b60408051828152602081018590526001600160a01b0384169133917fdcbc1c05240f31ff3ad067ef1ee35ce4997762752e3a095284754544f4c709d7910160405180910390a361064f8184611cc2565b6001805461053a9061223b565b33600090815260036020526040812080548391908390610b8f90849061228c565b90915550506001600160a01b038316600081815260036020526040908190208054850190555133906000805160206123cf833981519152906106439086815260200190565b60025460009080156105df576105da610beb6104f3565b849083611458565b6000610bfe84610655565b9050336001600160a01b03831614610c6e576001600160a01b03821660009081526004602090815260408083203384529091529020546000198114610c6c57610c47828261228c565b6001600160a01b03841660009081526004602090815260408083203384529091529020555b505b610c788482611de0565b610c828282611ea8565b60408051858152602081018390526001600160a01b03808516929086169133917ffbde797d201c681b91056529119e0b02407c7bb96a4a2c75c01fc9667232c8db910160405180910390a46105e16001600160a01b037f0000000000000000000000000000000000000000000000000000000000000000168486611f0a565b6000336001600160a01b03831614610d71576001600160a01b03821660009081526004602090815260408083203384529091529020546000198114610d6f57610d4a858261228c565b6001600160a01b03841660009081526004602090815260408083203384529091529020555b505b610d7a846109de565b905080610db75760405162461bcd60e51b815260206004820152600b60248201526a5a45524f5f41535345545360a81b6044820152606401610a2d565b610dc18185611de0565b610dcb8285611ea8565b60408051828152602081018690526001600160a01b03808516929086169133917ffbde797d201c681b91056529119e0b02407c7bb96a4a2c75c01fc9667232c8db910160405180910390a46105e16001600160a01b037f0000000000000000000000000000000000000000000000000000000000000000168483611f0a565b60405163731f0c2b60e01b81526001600160a01b037f0000000000000000000000000000000000000000000000000000000000000000818116600484015260009290917f0000000000000000000000000000000000000000000000000000000000000000169063731f0c2b90602401602060405180830381865afa158015610ed6573d6000803e3d6000fd5b505050506040513d601f19601f82011682018060405250810190610efa91906122a3565b15610f085750600092915050565b6040516302c3bcbb60e01b81526001600160a01b0382811660048301526000917f0000000000000000000000000000000000000000000000000000000000000000909116906302c3bcbb90602401602060405180830381865afa158015610f73573d6000803e3d6000fd5b505050506040513d601f19601f82011682018060405250810190610f9791906122c5565b905080610fa957506000199392505050565b6000610fe06109417f00000000000000000000000000000000000000000000000000000000000000006001600160a01b0316611520565b90506109d5610475828461228c565b60025460009080156105df576105da816110076104f3565b859190611439565b6000807f00000000000000000000000000000000000000000000000000000000000000006001600160a01b0316633b1d21a26040518163ffffffff1660e01b8152600401602060405180830381865afa158015611070573d6000803e3d6000fd5b505050506040513d601f19601f8201168201806040525081019061109491906122c5565b6001600160a01b038416600090815260036020526040812054919250906110ba906105bb565b90508082106110c957806110cb565b815b949350505050565b428410156111235760405162461bcd60e51b815260206004820152601760248201527f5045524d49545f444541444c494e455f455850495245440000000000000000006044820152606401610a2d565b6000600161112f610755565b6001600160a01b038a811660008181526005602090815260409182902080546001810190915582517f6e71edae12b1b97f4d1f60370fef10105fa2faae0126114a169c64845d6126c98184015280840194909452938d166060840152608083018c905260a083019390935260c08083018b90528151808403909101815260e08301909152805192019190912061190160f01b6101008301526101028201929092526101228101919091526101420160408051601f198184030181528282528051602091820120600084529083018083525260ff871690820152606081018590526080810184905260a0016020604051602081039080840390855afa15801561123b573d6000803e3d6000fd5b5050604051601f1901519150506001600160a01b038116158015906112715750876001600160a01b0316816001600160a01b0316145b6112ae5760405162461bcd60e51b815260206004820152600e60248201526d24a72b20a624a22fa9a4a3a722a960911b6044820152606401610a2d565b6001600160a01b0390811660009081526004602090815260408083208a8516808552908352928190208990555188815291928a16917f8c5be1e5ebec7d5bd14f71427d1e84f3dd0314c0f7b2291e5b200ac8c7c3b925910160405180910390a350505050505050565b6000807f00000000000000000000000000000000000000000000000000000000000000006001600160a01b0316633b1d21a26040518163ffffffff1660e01b8152600401602060405180830381865afa158015611378573d6000803e3d6000fd5b505050506040513d601f19601f8201168201806040525081019061139c91906122c5565b905060006113a982610fef565b6001600160a01b0385166000908152600360205260409020549091508082106113d257806109d5565b509392505050565b600061064f82610fef565b60006105e16113f384611520565b6040516370a0823160e01b81526001600160a01b0385811660048301528616906370a0823190602401602060405180830381865afa15801561099f573d6000803e3d6000fd5b82820281151584158583048514171661145157600080fd5b0492915050565b82820281151584158583048514171661147057600080fd5b6001826001830304018115150290509392505050565b60007f8b73c3c69bb8fe3d512ecc4cf759cc79239f7b179b0ffacaa9a75d522b39400f60006040516114b891906122de565b6040805191829003822060208301939093528101919091527fc89efdaa54c0f20c7adf612882df0950f5a951637e0307cdcb4c672f298b8bc660608201524660808201523060a082015260c00160405160208183030381529060405280519060200120905090565b600080826001600160a01b0316636c540baf6040518163ffffffff1660e01b8152600401602060405180830381865afa158015611561573d6000803e3d6000fd5b505050506040513d601f19601f8201168201806040525081019061158591906122c5565b9050438114156115f157826001600160a01b031663182df0f56040518163ffffffff1660e01b8152600401602060405180830381865afa1580156115cd573d6000803e3d6000fd5b505050506040513d601f19601f820116820180604052508101906105e191906122c5565b6000836001600160a01b0316636f307dc36040518163ffffffff1660e01b8152600401602060405180830381865afa158015611631573d6000803e3d6000fd5b505050506040513d601f19601f82011682018060405250810190611655919061237a565b6040516370a0823160e01b81526001600160a01b03868116600483015291909116906370a0823190602401602060405180830381865afa15801561169d573d6000803e3d6000fd5b505050506040513d601f19601f820116820180604052508101906116c191906122c5565b90506000846001600160a01b03166347bd37186040518163ffffffff1660e01b8152600401602060405180830381865afa158015611703573d6000803e3d6000fd5b505050506040513d601f19601f8201168201806040525081019061172791906122c5565b90506000856001600160a01b0316638f840ddd6040518163ffffffff1660e01b8152600401602060405180830381865afa158015611769573d6000803e3d6000fd5b505050506040513d601f19601f8201168201806040525081019061178d91906122c5565b90506000866001600160a01b03166361feacff6040518163ffffffff1660e01b8152600401602060405180830381865afa1580156117cf573d6000803e3d6000fd5b505050506040513d601f19601f820116820180604052508101906117f391906122c5565b90506000876001600160a01b031663dc028ab16040518163ffffffff1660e01b8152600401602060405180830381865afa158015611835573d6000803e3d6000fd5b505050506040513d601f19601f8201168201806040525081019061185991906122c5565b9050600080896001600160a01b031663f3fdb15a6040518163ffffffff1660e01b8152600401602060405180830381865afa15801561189c573d6000803e3d6000fd5b505050506040513d601f19601f820116820180604052508101906118c0919061237a565b6001600160a01b03166315f240538888866118db898b612397565b6118e59190612397565b6040516001600160e01b031960e086901b168152600481019390935260248301919091526044820152606401602060405180830381865afa15801561192e573d6000803e3d6000fd5b505050506040513d601f19601f8201168201806040525081019061195291906122c5565b905065048c2739500081111561199a5760405162461bcd60e51b815260206004820152600d60248201526c0a482a88abea89e9ebe90928e9609b1b6044820152606401610a2d565b6119b2866119a88a4361228c565b6109c390846123af565b9150506000846119fa838c6001600160a01b031663173b99046040518163ffffffff1660e01b8152600401602060405180830381865afa15801561099f573d6000803e3d6000fd5b611a049190612397565b9050600084611a4b848d6001600160a01b0316638d02d9a16040518163ffffffff1660e01b8152600401602060405180830381865afa15801561099f573d6000803e3d6000fd5b611a559190612397565b9050600084611a9c858e6001600160a01b031663dbfe7c196040518163ffffffff1660e01b8152600401602060405180830381865afa15801561099f573d6000803e3d6000fd5b611aa69190612397565b905060008c6001600160a01b03166318160ddd6040518163ffffffff1660e01b8152600401602060405180830381865afa158015611ae8573d6000803e3d6000fd5b505050506040513d601f19601f82011682018060405250810190611b0c91906122c5565b90508015611b5657611b518183611b238688612397565b611b2d9190612397565b611b378c89612397565b611b41908e612397565b611b4b919061228c565b90611f88565b611bb8565b8c6001600160a01b031663675d972c6040518163ffffffff1660e01b8152600401602060405180830381865afa158015611b94573d6000803e3d6000fd5b505050506040513d601f19601f82011682018060405250810190611bb891906122c5565b9d9c50505050505050505050505050565b60006105e18383670de0b6b3a7640000611439565b60006040516323b872dd60e01b81528460048201528360248201528260448201526020600060648360008a5af13d15601f3d1160016000511416171691505080611c615760405162461bcd60e51b81526020600482015260146024820152731514905394d1915497d19493d357d1905253115160621b6044820152606401610a2d565b5050505050565b8060026000828254611c7a9190612397565b90915550506001600160a01b0382166000818152600360209081526040808320805486019055518481526000805160206123cf83398151915291015b60405180910390a35050565b611d166001600160a01b037f0000000000000000000000000000000000000000000000000000000000000000167f000000000000000000000000000000000000000000000000000000000000000084611f9d565b60405163140e25ad60e31b8152600481018390527f00000000000000000000000000000000000000000000000000000000000000006001600160a01b03169063a0712d68906024016020604051808303816000875af1158015611d7d573d6000803e3d6000fd5b505050506040513d601f19601f82011682018060405250810190611da191906122c5565b15611ddc5760405162461bcd60e51b815260206004820152600b60248201526a1352539517d1905253115160aa1b6044820152606401610a2d565b5050565b60405163852a12e360e01b8152600481018390527f00000000000000000000000000000000000000000000000000000000000000006001600160a01b03169063852a12e3906024016020604051808303816000875af1158015611e47573d6000803e3d6000fd5b505050506040513d601f19601f82011682018060405250810190611e6b91906122c5565b15611ddc5760405162461bcd60e51b815260206004820152600d60248201526c14915111515357d19052531151609a1b6044820152606401610a2d565b6001600160a01b03821660009081526003602052604081208054839290611ed090849061228c565b90915550506002805482900390556040518181526000906001600160a01b038416906000805160206123cf83398151915290602001611cb6565b600060405163a9059cbb60e01b8152836004820152826024820152602060006044836000895af13d15601f3d1160016000511416171691505080611f825760405162461bcd60e51b815260206004820152600f60248201526e1514905394d1915497d19052531151608a1b6044820152606401610a2d565b50505050565b60006105e183670de0b6b3a764000084611439565b600060405163095ea7b360e01b8152836004820152826024820152602060006044836000895af13d15601f3d1160016000511416171691505080611f825760405162461bcd60e51b815260206004820152600e60248201526d1054141493d59157d1905253115160921b6044820152606401610a2d565b600060208083528351808285015260005b8181101561204157858101830151858201604001528201612025565b81811115612053576000604083870101525b50601f01601f1916929092016040019392505050565b60006020828403121561207b57600080fd5b5035919050565b6001600160a01b038116811461209757600080fd5b50565b600080604083850312156120ad57600080fd5b82356120b881612082565b946020939093013593505050565b6000806000606084860312156120db57600080fd5b83356120e681612082565b925060208401356120f681612082565b929592945050506040919091013590565b60006020828403121561211957600080fd5b81356105e181612082565b6000806040838503121561213757600080fd5b82359150602083013561214981612082565b809150509250929050565b60008060006060848603121561216957600080fd5b83359250602084013561217b81612082565b9150604084013561218b81612082565b809150509250925092565b600080600080600080600060e0888a0312156121b157600080fd5b87356121bc81612082565b965060208801356121cc81612082565b95506040880135945060608801359350608088013560ff811681146121f057600080fd5b9699959850939692959460a0840135945060c09093013592915050565b6000806040838503121561222057600080fd5b823561222b81612082565b9150602083013561214981612082565b600181811c9082168061224f57607f821691505b6020821081141561227057634e487b7160e01b600052602260045260246000fd5b50919050565b634e487b7160e01b600052601160045260246000fd5b60008282101561229e5761229e612276565b500390565b6000602082840312156122b557600080fd5b815180151581146105e157600080fd5b6000602082840312156122d757600080fd5b5051919050565b600080835481600182811c9150808316806122fa57607f831692505b602080841082141561231a57634e487b7160e01b86526022600452602486fd5b81801561232e576001811461233f5761236c565b60ff1986168952848901965061236c565b60008a81526020902060005b868110156123645781548b82015290850190830161234b565b505084890196505b509498975050505050505050565b60006020828403121561238c57600080fd5b81516105e181612082565b600082198211156123aa576123aa612276565b500190565b60008160001904831182151516156123c9576123c9612276565b50029056feddf252ad1be2c89b69c2b068fc378daa952ba7f163c4a11628f55a4df523b3efa26469706673582212206e26a84c7f4656222cce7545e04bddf1e98031e8d3f9e7ae34cb09a173472d2564736f6c634300080a0033",
    "linkReferences": {}
  }
}